{
  "_format": "hh-sol-artifact-1",
  "contractName": "MockTrustOracle",
  "sourceName": "contracts/MockTrustOracle.sol",
  "abi": [
    {
      "inputs": [
        {
          "internalType": "address",
          "name": "user",
          "type": "address"
        },
        {
          "internalType": "string",
          "name": "category",
          "type": "string"
        }
      ],
      "name": "getTrustScore",
      "outputs": [
        {
          "internalType": "uint256",
          "name": "",
          "type": "uint256"
        }
      ],
      "stateMutability": "view",
      "type": "function"
    },
    {
      "inputs": [
        {
          "internalType": "address",
          "name": "user",
          "type": "address"
        },
        {
          "internalType": "string",
          "name": "category",
          "type": "string"
        },
        {
          "internalType": "uint256",
          "name": "score",
          "type": "uint256"
        }
      ],
      "name": "setTrustScore",
      "outputs": [],
      "stateMutability": "nonpayable",
      "type": "function"
    }
  ],
  "bytecode": "0x608060405234801561001057600080fd5b5061051f806100206000396000f3fe608060405234801561001057600080fd5b50600436106100365760003560e01c80636866af7c1461003b578063ec89028614610057575b600080fd5b61005560048036038101906100509190610347565b610087565b005b610071600480360381019061006c9190610416565b6100e7565b60405161007e9190610485565b60405180910390f35b806000808573ffffffffffffffffffffffffffffffffffffffff1673ffffffffffffffffffffffffffffffffffffffff16815260200190815260200160002060008480519060200120815260200190815260200160002081905550505050565b60008060008573ffffffffffffffffffffffffffffffffffffffff1673ffffffffffffffffffffffffffffffffffffffff168152602001908152602001600020600084846040516101399291906104d0565b604051809103902081526020019081526020016000205490509392505050565b6000604051905090565b600080fd5b600080fd5b600073ffffffffffffffffffffffffffffffffffffffff82169050919050565b60006101988261016d565b9050919050565b6101a88161018d565b81146101b357600080fd5b50565b6000813590506101c58161019f565b92915050565b600080fd5b600080fd5b6000601f19601f8301169050919050565b7f4e487b7100000000000000000000000000000000000000000000000000000000600052604160045260246000fd5b61021e826101d5565b810181811067ffffffffffffffff8211171561023d5761023c6101e6565b5b80604052505050565b6000610250610159565b905061025c8282610215565b919050565b600067ffffffffffffffff82111561027c5761027b6101e6565b5b610285826101d5565b9050602081019050919050565b82818337600083830152505050565b60006102b46102af84610261565b610246565b9050828152602081018484840111156102d0576102cf6101d0565b5b6102db848285610292565b509392505050565b600082601f8301126102f8576102f76101cb565b5b81356103088482602086016102a1565b91505092915050565b6000819050919050565b61032481610311565b811461032f57600080fd5b50565b6000813590506103418161031b565b92915050565b6000806000606084860312156103605761035f610163565b5b600061036e868287016101b6565b935050602084013567ffffffffffffffff81111561038f5761038e610168565b5b61039b868287016102e3565b92505060406103ac86828701610332565b9150509250925092565b600080fd5b600080fd5b60008083601f8401126103d6576103d56101cb565b5b8235905067ffffffffffffffff8111156103f3576103f26103b6565b5b60208301915083600182028301111561040f5761040e6103bb565b5b9250929050565b60008060006040848603121561042f5761042e610163565b5b600061043d868287016101b6565b935050602084013567ffffffffffffffff81111561045e5761045d610168565b5b61046a868287016103c0565b92509250509250925092565b61047f81610311565b82525050565b600060208201905061049a6000830184610476565b92915050565b600081905092915050565b60006104b783856104a0565b93506104c4838584610292565b82840190509392505050565b60006104dd8284866104ab565b9150819050939250505056fea2646970667358221220a733e8f38c2f2d5932a0437983a6efe06292618639d136de0b18b8086d8d7d3d64736f6c63430008180033",
  "linkReferences": {},
  "deployedLinkReferences": {}
}