{
  "_format": "hh-sol-artifact-1",
  "contractName": "ViewIndex",
  "sourceName": "contracts/ViewIndex.sol",
  "abi": [
    {
      "anonymous": false,
      "inputs": [
        {
          "indexed": true,
          "internalType": "bytes32",
          "name": "postHash",
          "type": "bytes32"
        },
        {
          "indexed": true,
          "internalType": "address",
          "name": "author",
          "type": "address"
        },
        {
          "indexed": false,
          "internalType": "uint256",
          "name": "timestamp",
          "type": "uint256"
        }
      ],
      "name": "PostRegistered",
      "type": "event"
    },
    {
      "anonymous": false,
      "inputs": [
        {
          "indexed": true,
          "internalType": "bytes32",
          "name": "postHash",
          "type": "bytes32"
        },
        {
          "indexed": true,
          "internalType": "address",
          "name": "viewer",
          "type": "address"
        }
      ],
      "name": "ViewLogged",
      "type": "event"
    },
    {
      "inputs": [
        {
          "internalType": "bytes32",
          "name": "",
          "type": "bytes32"
        }
      ],
      "name": "firstSeen",
      "outputs": [
        {
          "internalType": "uint256",
          "name": "",
          "type": "uint256"
        }
      ],
      "stateMutability": "view",
      "type": "function"
    },
    {
      "inputs": [
        {
          "internalType": "bytes32",
          "name": "postHash",
          "type": "bytes32"
        }
      ],
      "name": "getPostMeta",
      "outputs": [
        {
          "internalType": "address",
          "name": "",
          "type": "address"
        },
        {
          "internalType": "uint256",
          "name": "",
          "type": "uint256"
        },
        {
          "internalType": "uint256",
          "name": "",
          "type": "uint256"
        }
      ],
      "stateMutability": "view",
      "type": "function"
    },
    {
      "inputs": [
        {
          "internalType": "bytes32",
          "name": "",
          "type": "bytes32"
        }
      ],
      "name": "originalAuthor",
      "outputs": [
        {
          "internalType": "address",
          "name": "",
          "type": "address"
        }
      ],
      "stateMutability": "view",
      "type": "function"
    },
    {
      "inputs": [
        {
          "internalType": "bytes32",
          "name": "postHash",
          "type": "bytes32"
        }
      ],
      "name": "registerPost",
      "outputs": [],
      "stateMutability": "nonpayable",
      "type": "function"
    },
    {
      "inputs": [
        {
          "internalType": "bytes32",
          "name": "postHash",
          "type": "bytes32"
        }
      ],
      "name": "registerView",
      "outputs": [],
      "stateMutability": "nonpayable",
      "type": "function"
    },
    {
      "inputs": [
        {
          "internalType": "bytes32",
          "name": "",
          "type": "bytes32"
        }
      ],
      "name": "viewCounts",
      "outputs": [
        {
          "internalType": "uint256",
          "name": "",
          "type": "uint256"
        }
      ],
      "stateMutability": "view",
      "type": "function"
    }
  ],
  "bytecode": "0x608060405234801561001057600080fd5b50610645806100206000396000f3fe608060405234801561001057600080fd5b50600436106100625760003560e01c80631051c6f81461006757806330fd9e1a146100835780634b3f505e146100b35780639c5ac05a146100e3578063cc4320a314610115578063dcb4a86214610145575b600080fd5b610081600480360381019061007c919061043b565b610161565b005b61009d6004803603810190610098919061043b565b6102bf565b6040516100aa9190610481565b60405180910390f35b6100cd60048036038101906100c8919061043b565b6102d7565b6040516100da9190610481565b60405180910390f35b6100fd60048036038101906100f8919061043b565b6102ef565b60405161010c939291906104dd565b60405180910390f35b61012f600480360381019061012a919061043b565b61035c565b60405161013c9190610514565b60405180910390f35b61015f600480360381019061015a919061043b565b61038f565b005b600073ffffffffffffffffffffffffffffffffffffffff166001600083815260200190815260200160002060009054906101000a900473ffffffffffffffffffffffffffffffffffffffff1673ffffffffffffffffffffffffffffffffffffffff1614610203576040517f08c379a00000000000000000000000000000000000000000000000000000000081526004016101fa9061058c565b60405180910390fd5b336001600083815260200190815260200160002060006101000a81548173ffffffffffffffffffffffffffffffffffffffff021916908373ffffffffffffffffffffffffffffffffffffffff1602179055504260026000838152602001908152602001600020819055503373ffffffffffffffffffffffffffffffffffffffff16817fc56c9f5b57a9a4f4e66bb1e1b506b0f2234b004f073812dbe0f0686cfc7dcf72426040516102b49190610481565b60405180910390a350565b60006020528060005260406000206000915090505481565b60026020528060005260406000206000915090505481565b60008060006001600085815260200190815260200160002060009054906101000a900473ffffffffffffffffffffffffffffffffffffffff166002600086815260200190815260200160002054600080878152602001908152602001600020549250925092509193909250565b60016020528060005260406000206000915054906101000a900473ffffffffffffffffffffffffffffffffffffffff1681565b600160008083815260200190815260200160002060008282546103b291906105db565b925050819055503373ffffffffffffffffffffffffffffffffffffffff16817f9083c063b4b692b615b28a0cc7236b4474b49f64de75b91ff7bd07b4f394aea860405160405180910390a350565b600080fd5b6000819050919050565b61041881610405565b811461042357600080fd5b50565b6000813590506104358161040f565b92915050565b60006020828403121561045157610450610400565b5b600061045f84828501610426565b91505092915050565b6000819050919050565b61047b81610468565b82525050565b60006020820190506104966000830184610472565b92915050565b600073ffffffffffffffffffffffffffffffffffffffff82169050919050565b60006104c78261049c565b9050919050565b6104d7816104bc565b82525050565b60006060820190506104f260008301866104ce565b6104ff6020830185610472565b61050c6040830184610472565b949350505050565b600060208201905061052960008301846104ce565b92915050565b600082825260208201905092915050565b7f416c726561647920726567697374657265640000000000000000000000000000600082015250565b600061057660128361052f565b915061058182610540565b602082019050919050565b600060208201905081810360008301526105a581610569565b9050919050565b7f4e487b7100000000000000000000000000000000000000000000000000000000600052601160045260246000fd5b60006105e682610468565b91506105f183610468565b9250828201905080821115610609576106086105ac565b5b9291505056fea26469706673582212202b0cd77aaeec99a7a58d272f9f06f49e4597f9c7d57f61e8b5b2f9a9c4711eb664736f6c63430008180033",
  "linkReferences": {},
  "deployedLinkReferences": {}
}