{
  "_format": "hh-sol-artifact-1",
  "contractName": "LottoModule",
  "sourceName": "contracts/LottoModule.sol",
  "abi": [
    {
      "inputs": [
        {
          "internalType": "address",
          "name": "_trn",
          "type": "address"
        },
        {
          "internalType": "address",
          "name": "_usageOracle",
          "type": "address"
        },
        {
          "internalType": "address",
          "name": "_trustOracle",
          "type": "address"
        }
      ],
      "stateMutability": "nonpayable",
      "type": "constructor"
    },
    {
      "anonymous": false,
      "inputs": [
        {
          "indexed": true,
          "internalType": "address",
          "name": "user",
          "type": "address"
        },
        {
          "indexed": false,
          "internalType": "string",
          "name": "category",
          "type": "string"
        },
        {
          "indexed": false,
          "internalType": "uint256",
          "name": "amount",
          "type": "uint256"
        }
      ],
      "name": "LottoPayout",
      "type": "event"
    },
    {
      "inputs": [
        {
          "internalType": "address[]",
          "name": "winners",
          "type": "address[]"
        },
        {
          "internalType": "uint256",
          "name": "totalReward",
          "type": "uint256"
        },
        {
          "internalType": "string",
          "name": "category",
          "type": "string"
        }
      ],
      "name": "distribute",
      "outputs": [],
      "stateMutability": "nonpayable",
      "type": "function"
    },
    {
      "inputs": [],
      "name": "owner",
      "outputs": [
        {
          "internalType": "address",
          "name": "",
          "type": "address"
        }
      ],
      "stateMutability": "view",
      "type": "function"
    },
    {
      "inputs": [
        {
          "internalType": "address",
          "name": "newOwner",
          "type": "address"
        }
      ],
      "name": "transferOwnership",
      "outputs": [],
      "stateMutability": "nonpayable",
      "type": "function"
    },
    {
      "inputs": [],
      "name": "trn",
      "outputs": [
        {
          "internalType": "contract IERC20",
          "name": "",
          "type": "address"
        }
      ],
      "stateMutability": "view",
      "type": "function"
    },
    {
      "inputs": [],
      "name": "trustOracle",
      "outputs": [
        {
          "internalType": "contract ITrustOracle",
          "name": "",
          "type": "address"
        }
      ],
      "stateMutability": "view",
      "type": "function"
    },
    {
      "inputs": [],
      "name": "usageOracle",
      "outputs": [
        {
          "internalType": "contract ITRNUsageOracle",
          "name": "",
          "type": "address"
        }
      ],
      "stateMutability": "view",
      "type": "function"
    }
  ],
  "bytecode": "0x60806040523480156200001157600080fd5b506040516200124a3803806200124a8339818101604052810190620000379190620001ad565b826000806101000a81548173ffffffffffffffffffffffffffffffffffffffff021916908373ffffffffffffffffffffffffffffffffffffffff16021790555081600160006101000a81548173ffffffffffffffffffffffffffffffffffffffff021916908373ffffffffffffffffffffffffffffffffffffffff16021790555080600260006101000a81548173ffffffffffffffffffffffffffffffffffffffff021916908373ffffffffffffffffffffffffffffffffffffffff16021790555033600360006101000a81548173ffffffffffffffffffffffffffffffffffffffff021916908373ffffffffffffffffffffffffffffffffffffffff16021790555050505062000209565b600080fd5b600073ffffffffffffffffffffffffffffffffffffffff82169050919050565b6000620001758262000148565b9050919050565b620001878162000168565b81146200019357600080fd5b50565b600081519050620001a7816200017c565b92915050565b600080600060608486031215620001c957620001c862000143565b5b6000620001d98682870162000196565b9350506020620001ec8682870162000196565b9250506040620001ff8682870162000196565b9150509250925092565b61103180620002196000396000f3fe608060405234801561001057600080fd5b50600436106100625760003560e01c806310a626de146100675780638da5cb5b14610085578063bb0db115146100a3578063c07413fa146100bf578063e8de6382146100dd578063f2fde38b146100fb575b600080fd5b61006f610117565b60405161007c9190610732565b60405180910390f35b61008d61013d565b60405161009a919061076e565b60405180910390f35b6100bd60048036038101906100b89190610a0d565b610163565b005b6100c7610526565b6040516100d49190610ab9565b60405180910390f35b6100e561054c565b6040516100f29190610af5565b60405180910390f35b61011560048036038101906101109190610b10565b610570565b005b600260009054906101000a900473ffffffffffffffffffffffffffffffffffffffff1681565b600360009054906101000a900473ffffffffffffffffffffffffffffffffffffffff1681565b600360009054906101000a900473ffffffffffffffffffffffffffffffffffffffff1673ffffffffffffffffffffffffffffffffffffffff163373ffffffffffffffffffffffffffffffffffffffff16146101f3576040517f08c379a00000000000000000000000000000000000000000000000000000000081526004016101ea90610b9a565b60405180910390fd5b6000835111610237576040517f08c379a000000000000000000000000000000000000000000000000000000000815260040161022e90610c06565b60405180910390fd5b60008351836102469190610c84565b905060005b845181101561051f57600085828151811061026957610268610cb5565b5b602002602001015190506000600260009054906101000a900473ffffffffffffffffffffffffffffffffffffffff1673ffffffffffffffffffffffffffffffffffffffff1663ec89028683876040518363ffffffff1660e01b81526004016102d2929190610d52565b602060405180830381865afa1580156102ef573d6000803e3d6000fd5b505050506040513d601f19601f820116820180604052508101906103139190610d97565b90506000606482866103259190610dc4565b61032f9190610c84565b905060008054906101000a900473ffffffffffffffffffffffffffffffffffffffff1673ffffffffffffffffffffffffffffffffffffffff1663a9059cbb84836040518363ffffffff1660e01b815260040161038c929190610e15565b6020604051808303816000875af11580156103ab573d6000803e3d6000fd5b505050506040513d601f19601f820116820180604052508101906103cf9190610e76565b61040e576040517f08c379a000000000000000000000000000000000000000000000000000000000815260040161040590610eef565b60405180910390fd5b600160009054906101000a900473ffffffffffffffffffffffffffffffffffffffff1673ffffffffffffffffffffffffffffffffffffffff16632fc5c2a284837f144104c189d69c51331a414b2902b4d47696f4c2aedea53a674af319f2b9f9b46040518463ffffffff1660e01b815260040161048d93929190610f28565b600060405180830381600087803b1580156104a757600080fd5b505af11580156104bb573d6000803e3d6000fd5b505050508273ffffffffffffffffffffffffffffffffffffffff167fa727497e276651be8beb669e047296660216c1b4a46085e37f71614fbde2a0ab8783604051610507929190610f5f565b60405180910390a2505050808060010191505061024b565b5050505050565b600160009054906101000a900473ffffffffffffffffffffffffffffffffffffffff1681565b60008054906101000a900473ffffffffffffffffffffffffffffffffffffffff1681565b600360009054906101000a900473ffffffffffffffffffffffffffffffffffffffff1673ffffffffffffffffffffffffffffffffffffffff163373ffffffffffffffffffffffffffffffffffffffff1614610600576040517f08c379a00000000000000000000000000000000000000000000000000000000081526004016105f790610b9a565b60405180910390fd5b600073ffffffffffffffffffffffffffffffffffffffff168173ffffffffffffffffffffffffffffffffffffffff160361066f576040517f08c379a000000000000000000000000000000000000000000000000000000000815260040161066690610fdb565b60405180910390fd5b80600360006101000a81548173ffffffffffffffffffffffffffffffffffffffff021916908373ffffffffffffffffffffffffffffffffffffffff16021790555050565b600073ffffffffffffffffffffffffffffffffffffffff82169050919050565b6000819050919050565b60006106f86106f36106ee846106b3565b6106d3565b6106b3565b9050919050565b600061070a826106dd565b9050919050565b600061071c826106ff565b9050919050565b61072c81610711565b82525050565b60006020820190506107476000830184610723565b92915050565b6000610758826106b3565b9050919050565b6107688161074d565b82525050565b6000602082019050610783600083018461075f565b92915050565b6000604051905090565b600080fd5b600080fd5b600080fd5b6000601f19601f8301169050919050565b7f4e487b7100000000000000000000000000000000000000000000000000000000600052604160045260246000fd5b6107eb826107a2565b810181811067ffffffffffffffff8211171561080a576108096107b3565b5b80604052505050565b600061081d610789565b905061082982826107e2565b919050565b600067ffffffffffffffff821115610849576108486107b3565b5b602082029050602081019050919050565b600080fd5b6108688161074d565b811461087357600080fd5b50565b6000813590506108858161085f565b92915050565b600061089e6108998461082e565b610813565b905080838252602082019050602084028301858111156108c1576108c061085a565b5b835b818110156108ea57806108d68882610876565b8452602084019350506020810190506108c3565b5050509392505050565b600082601f8301126109095761090861079d565b5b813561091984826020860161088b565b91505092915050565b6000819050919050565b61093581610922565b811461094057600080fd5b50565b6000813590506109528161092c565b92915050565b600080fd5b600067ffffffffffffffff821115610978576109776107b3565b5b610981826107a2565b9050602081019050919050565b82818337600083830152505050565b60006109b06109ab8461095d565b610813565b9050828152602081018484840111156109cc576109cb610958565b5b6109d784828561098e565b509392505050565b600082601f8301126109f4576109f361079d565b5b8135610a0484826020860161099d565b91505092915050565b600080600060608486031215610a2657610a25610793565b5b600084013567ffffffffffffffff811115610a4457610a43610798565b5b610a50868287016108f4565b9350506020610a6186828701610943565b925050604084013567ffffffffffffffff811115610a8257610a81610798565b5b610a8e868287016109df565b9150509250925092565b6000610aa3826106ff565b9050919050565b610ab381610a98565b82525050565b6000602082019050610ace6000830184610aaa565b92915050565b6000610adf826106ff565b9050919050565b610aef81610ad4565b82525050565b6000602082019050610b0a6000830184610ae6565b92915050565b600060208284031215610b2657610b25610793565b5b6000610b3484828501610876565b91505092915050565b600082825260208201905092915050565b7f4e6f74206f776e65720000000000000000000000000000000000000000000000600082015250565b6000610b84600983610b3d565b9150610b8f82610b4e565b602082019050919050565b60006020820190508181036000830152610bb381610b77565b9050919050565b7f4e6f2077696e6e65727300000000000000000000000000000000000000000000600082015250565b6000610bf0600a83610b3d565b9150610bfb82610bba565b602082019050919050565b60006020820190508181036000830152610c1f81610be3565b9050919050565b7f4e487b7100000000000000000000000000000000000000000000000000000000600052601260045260246000fd5b7f4e487b7100000000000000000000000000000000000000000000000000000000600052601160045260246000fd5b6000610c8f82610922565b9150610c9a83610922565b925082610caa57610ca9610c26565b5b828204905092915050565b7f4e487b7100000000000000000000000000000000000000000000000000000000600052603260045260246000fd5b600081519050919050565b60005b83811015610d0d578082015181840152602081019050610cf2565b60008484015250505050565b6000610d2482610ce4565b610d2e8185610b3d565b9350610d3e818560208601610cef565b610d47816107a2565b840191505092915050565b6000604082019050610d67600083018561075f565b8181036020830152610d798184610d19565b90509392505050565b600081519050610d918161092c565b92915050565b600060208284031215610dad57610dac610793565b5b6000610dbb84828501610d82565b91505092915050565b6000610dcf82610922565b9150610dda83610922565b9250828202610de881610922565b91508282048414831517610dff57610dfe610c55565b5b5092915050565b610e0f81610922565b82525050565b6000604082019050610e2a600083018561075f565b610e376020830184610e06565b9392505050565b60008115159050919050565b610e5381610e3e565b8114610e5e57600080fd5b50565b600081519050610e7081610e4a565b92915050565b600060208284031215610e8c57610e8b610793565b5b6000610e9a84828501610e61565b91505092915050565b7f54524e207472616e73666572206661696c656400000000000000000000000000600082015250565b6000610ed9601383610b3d565b9150610ee482610ea3565b602082019050919050565b60006020820190508181036000830152610f0881610ecc565b9050919050565b6000819050919050565b610f2281610f0f565b82525050565b6000606082019050610f3d600083018661075f565b610f4a6020830185610e06565b610f576040830184610f19565b949350505050565b60006040820190508181036000830152610f798185610d19565b9050610f886020830184610e06565b9392505050565b7f496e76616c6964206f776e657200000000000000000000000000000000000000600082015250565b6000610fc5600d83610b3d565b9150610fd082610f8f565b602082019050919050565b60006020820190508181036000830152610ff481610fb8565b905091905056fea2646970667358221220518415be59a29953a46ead1e2da8a3a2e4640fb31fcc20e130e5b3381a36b5e064736f6c63430008180033",
  "linkReferences": {},
  "deployedLinkReferences": {}
}